{
  "abi": [
    {
      "type": "constructor",
      "inputs": [
        {
          "name": "_config",
          "type": "tuple",
          "internalType": "struct IDKG.DKGConfig",
          "components": [
            {
              "name": "T_COMMITTEE",
              "type": "uint256",
              "internalType": "uint256"
            },
            {
              "name": "N_COMMITTEE",
              "type": "uint256",
              "internalType": "uint256"
            },
            {
              "name": "verifier",
              "type": "address",
              "internalType": "address"
            }
          ]
        },
        {
          "name": "initMembers",
          "type": "address[]",
          "internalType": "address[]"
        }
      ],
      "stateMutability": "nonpayable"
    },
    {
      "type": "function",
      "name": "Commitment",
      "inputs": [
        {
          "name": "",
          "type": "uint256",
          "internalType": "uint256"
        },
        {
          "name": "",
          "type": "uint256",
          "internalType": "uint256"
        }
      ],
      "outputs": [
        {
          "name": "x",
          "type": "uint256",
          "internalType": "uint256"
        },
        {
          "name": "y",
          "type": "uint256",
          "internalType": "uint256"
        }
      ],
      "stateMutability": "view"
    },
    {
      "type": "function",
      "name": "CommitteeIndices",
      "inputs": [
        {
          "name": "",
          "type": "address",
          "internalType": "address"
        }
      ],
      "outputs": [
        {
          "name": "",
          "type": "uint256",
          "internalType": "uint256"
        }
      ],
      "stateMutability": "view"
    },
    {
      "type": "function",
      "name": "Disclosure",
      "inputs": [
        {
          "name": "",
          "type": "uint256",
          "internalType": "uint256"
        },
        {
          "name": "",
          "type": "uint256",
          "internalType": "uint256"
        }
      ],
      "outputs": [
        {
          "name": "x",
          "type": "uint256",
          "internalType": "uint256"
        },
        {
          "name": "y",
          "type": "uint256",
          "internalType": "uint256"
        }
      ],
      "stateMutability": "view"
    },
    {
      "type": "function",
      "name": "Encrypted",
      "inputs": [
        {
          "name": "",
          "type": "uint256",
          "internalType": "uint256"
        },
        {
          "name": "",
          "type": "uint256",
          "internalType": "uint256"
        }
      ],
      "outputs": [
        {
          "name": "",
          "type": "uint256",
          "internalType": "uint256"
        }
      ],
      "stateMutability": "view"
    },
    {
      "type": "function",
      "name": "PK_COMMITTEE",
      "inputs": [],
      "outputs": [
        {
          "name": "x",
          "type": "uint256",
          "internalType": "uint256"
        },
        {
          "name": "y",
          "type": "uint256",
          "internalType": "uint256"
        }
      ],
      "stateMutability": "view"
    },
    {
      "type": "function",
      "name": "config",
      "inputs": [],
      "outputs": [
        {
          "name": "T_COMMITTEE",
          "type": "uint256",
          "internalType": "uint256"
        },
        {
          "name": "N_COMMITTEE",
          "type": "uint256",
          "internalType": "uint256"
        },
        {
          "name": "verifier",
          "type": "address",
          "internalType": "address"
        }
      ],
      "stateMutability": "view"
    },
    {
      "type": "function",
      "name": "owner",
      "inputs": [],
      "outputs": [
        {
          "name": "",
          "type": "address",
          "internalType": "address"
        }
      ],
      "stateMutability": "view"
    },
    {
      "type": "function",
      "name": "register",
      "inputs": [
        {
          "name": "member",
          "type": "address",
          "internalType": "address"
        }
      ],
      "outputs": [],
      "stateMutability": "nonpayable"
    },
    {
      "type": "function",
      "name": "reveal",
      "inputs": [
        {
          "name": "params",
          "type": "tuple",
          "internalType": "struct IDKG.RevealParams",
          "components": [
            {
              "name": "pkAddressIn",
              "type": "uint256[2]",
              "internalType": "uint256[2]"
            },
            {
              "name": "D",
              "type": "uint256[2]",
              "internalType": "uint256[2]"
            },
            {
              "name": "proof",
              "type": "bytes",
              "internalType": "bytes"
            }
          ]
        }
      ],
      "outputs": [],
      "stateMutability": "nonpayable"
    },
    {
      "type": "function",
      "name": "round1",
      "inputs": [
        {
          "name": "P",
          "type": "tuple[]",
          "internalType": "struct IDKG.BabyJubPoint[]",
          "components": [
            {
              "name": "x",
              "type": "uint256",
              "internalType": "uint256"
            },
            {
              "name": "y",
              "type": "uint256",
              "internalType": "uint256"
            }
          ]
        }
      ],
      "outputs": [],
      "stateMutability": "nonpayable"
    },
    {
      "type": "function",
      "name": "round2",
      "inputs": [
        {
          "name": "params",
          "type": "tuple",
          "internalType": "struct IDKG.Round2Params",
          "components": [
            {
              "name": "encrypted",
              "type": "uint256[]",
              "internalType": "uint256[]"
            },
            {
              "name": "proof",
              "type": "bytes",
              "internalType": "bytes"
            }
          ]
        }
      ],
      "outputs": [],
      "stateMutability": "nonpayable"
    },
    {
      "type": "function",
      "name": "state",
      "inputs": [],
      "outputs": [
        {
          "name": "stage",
          "type": "uint8",
          "internalType": "enum IDKG.Stage"
        },
        {
          "name": "accumulator",
          "type": "uint256",
          "internalType": "uint256"
        }
      ],
      "stateMutability": "view"
    },
    {
      "type": "event",
      "name": "Commit",
      "inputs": [
        {
          "name": "member",
          "type": "address",
          "indexed": true,
          "internalType": "address"
        },
        {
          "name": "memberIndex",
          "type": "uint256",
          "indexed": true,
          "internalType": "uint256"
        }
      ],
      "anonymous": false
    },
    {
      "type": "event",
      "name": "Contribute",
      "inputs": [
        {
          "name": "member",
          "type": "address",
          "indexed": true,
          "internalType": "address"
        },
        {
          "name": "memberIndex",
          "type": "uint256",
          "indexed": true,
          "internalType": "uint256"
        }
      ],
      "anonymous": false
    },
    {
      "type": "event",
      "name": "Registered",
      "inputs": [
        {
          "name": "member",
          "type": "address",
          "indexed": true,
          "internalType": "address"
        },
        {
          "name": "memberIndex",
          "type": "uint256",
          "indexed": true,
          "internalType": "uint256"
        }
      ],
      "anonymous": false
    },
    {
      "type": "event",
      "name": "Reveal",
      "inputs": [
        {
          "name": "pkx",
          "type": "uint256",
          "indexed": true,
          "internalType": "uint256"
        },
        {
          "name": "pky",
          "type": "uint256",
          "indexed": true,
          "internalType": "uint256"
        },
        {
          "name": "member",
          "type": "address",
          "indexed": false,
          "internalType": "address"
        }
      ],
      "anonymous": false
    },
    {
      "type": "event",
      "name": "UpdateState",
      "inputs": [
        {
          "name": "stage",
          "type": "uint8",
          "indexed": false,
          "internalType": "enum IDKG.Stage"
        }
      ],
      "anonymous": false
    },
    {
      "type": "error",
      "name": "AlreadyCommitted",
      "inputs": [
        {
          "name": "sender",
          "type": "address",
          "internalType": "address"
        }
      ]
    },
    {
      "type": "error",
      "name": "AlreadyContributed",
      "inputs": [
        {
          "name": "sender",
          "type": "address",
          "internalType": "address"
        }
      ]
    },
    {
      "type": "error",
      "name": "AlreadyRegistered",
      "inputs": [
        {
          "name": "sender",
          "type": "address",
          "internalType": "address"
        }
      ]
    },
    {
      "type": "error",
      "name": "InvalidProof",
      "inputs": []
    },
    {
      "type": "error",
      "name": "NotInCommittingStage",
      "inputs": []
    },
    {
      "type": "error",
      "name": "NotInContributingStage",
      "inputs": []
    },
    {
      "type": "error",
      "name": "NotInReadyStage",
      "inputs": []
    },
    {
      "type": "error",
      "name": "NotInRegisterStage",
      "inputs": []
    },
    {
      "type": "error",
      "name": "NotOnCurve",
      "inputs": []
    },
    {
      "type": "error",
      "name": "UnauthorizedAddress",
      "inputs": [
        {
          "name": "sender",
          "type": "address",
          "internalType": "address"
        }
      ]
    },
    {
      "type": "error",
      "name": "UnexpectedArrayLength",
      "inputs": []
    }
  ],
  "bytecode": {
    "object": "0x60806040523480156200001157600080fd5b5060405162001dc738038062001dc7833981016040819052620000349162000325565b60008054336001600160a01b03199182161782558351600190815560208086018051600255604080880151600380549096166001600160a01b03909116179094558351808501855285815282018590526004805460ff1916905560058590558351808501909452848452920181905260068390556007558251905111620000c0578260200151620000c3565b81515b905060005b818110156200010757620000fe838281518110620000ea57620000ea6200043a565b60200260200101516200011160201b60201c565b600101620000c8565b50505050620004c7565b60005433906001600160a01b031681146200014f576040516311fd7c5560e31b81526001600160a01b03821660048201526024015b60405180910390fd5b600060045460ff1660038111156200016b576200016b62000424565b146200018a57604051635fc09a7560e01b815260040160405180910390fd5b6001600160a01b03821660009081526008602052604090205415620001ce576040516345ed80e960e01b81526001600160a01b038316600482015260240162000146565b600554620001de90600162000466565b6001600160a01b03831660009081526008602052604090205562000203600162000207565b5050565b60055480620002168162000482565b915050600180015481036200028e5760006005556004805483919060ff191660018360038111156200024c576200024c62000424565b02179055507f1501476ad057e333abb9bb708545e6cd1af64d0650fb8f2900f67e2fa431c0b7826040516200028291906200049e565b60405180910390a15050565b60055550565b634e487b7160e01b600052604160045260246000fd5b604051606081016001600160401b0381118282101715620002cf57620002cf62000294565b60405290565b604051601f8201601f191681016001600160401b038111828210171562000300576200030062000294565b604052919050565b80516001600160a01b03811681146200032057600080fd5b919050565b60008082840360808112156200033a57600080fd5b60608112156200034957600080fd5b5062000354620002aa565b8351815260208085015181830152620003706040860162000308565b604083015260608501519193506001600160401b03808311156200039357600080fd5b828601925086601f840112620003a857600080fd5b825181811115620003bd57620003bd62000294565b8060051b9150620003d0838301620002d5565b8181529184018301918381019089841115620003eb57600080fd5b948401945b838610156200041457620004048662000308565b82529484019490840190620003f0565b8096505050505050509250929050565b634e487b7160e01b600052602160045260246000fd5b634e487b7160e01b600052603260045260246000fd5b634e487b7160e01b600052601160045260246000fd5b808201808211156200047c576200047c62000450565b92915050565b60006001820162000497576200049762000450565b5060010190565b6020810160048310620004c157634e487b7160e01b600052602160045260246000fd5b91905290565b6118f080620004d76000396000f3fe608060405234801561001057600080fd5b50600436106100b45760003560e01c806379502c551161007157806379502c55146101b85780638da5cb5b146101f7578063b50fa3d314610222578063c19d93fb14610235578063c5a0495814610254578063ee5cf1531461026757600080fd5b806328ec6d3c146100b957806330ac716d146101055780633d77cf8b1461013e5780634420e486146101705780635747a74d14610185578063601e16e9146101a5575b600080fd5b6100eb6100c73660046114f0565b60096020908152600092835260408084209091529082529020805460019091015482565b604080519283526020830191909152015b60405180910390f35b6101306101133660046114f0565b600a60209081526000928352604080842090915290825290205481565b6040519081526020016100fc565b6100eb61014c3660046114f0565b600b6020908152600092835260408084209091529082529020805460019091015482565b61018361017e366004611512565b610275565b005b610130610193366004611512565b60086020526000908152604090205481565b6101836101b3366004611542565b610360565b6001546002546003546101d39291906001600160a01b031683565b6040805193845260208401929092526001600160a01b0316908201526060016100fc565b60005461020a906001600160a01b031681565b6040516001600160a01b0390911681526020016100fc565b61018361023036600461157d565b610922565b6004546005546102469160ff169082565b6040516100fc9291906115f0565b61018361026236600461160b565b610f47565b6006546007546100eb919082565b60005433906001600160a01b031681146102b2576040516311fd7c5560e31b81526001600160a01b03821660048201526024015b60405180910390fd5b600060045460ff1660038111156102cb576102cb6115b8565b146102e957604051635fc09a7560e01b815260040160405180910390fd5b6001600160a01b0382166000908152600860205260409020541561032b576040516345ed80e960e01b81526001600160a01b03831660048201526024016102a9565b600554610339906001611696565b6001600160a01b03831660009081526008602052604090205561035c60016111c4565b5050565b336000818152600860205260408120549081900361039c576040516311fd7c5560e31b81526001600160a01b03831660048201526024016102a9565b600360045460ff1660038111156103b5576103b56115b8565b146103d35760405163e7c9ee6f60e01b815260040160405180910390fd5b3360009081526008602052604080822054600154600280546003549451633757a45160e11b81526004810192909252929491936001600160a01b031691908290636eaf48a290602401602060405180830381865afa158015610439573d6000803e3d6000fd5b505050506040513d601f19601f8201168201806040525081019061045d91906116a9565b60ff1667ffffffffffffffff811115610478576104786116cc565b6040519080825280602002602001820160405280156104a1578160200160208202803683370190505b5090506000805b85811015610548576000878152600960209081526040808320848452909152902054836104d68360026116e2565b815181106104e6576104e66116f9565b602090810291909101810191909152600088815260098252604080822084835290925220600101548361051a8360026116e2565b610525906001611696565b81518110610535576105356116f9565b60209081029190910101526001016104a8565b506105548560026116e2565b61055e9082611696565b905060015b8481116106515780871461063f57600087821161058a5761058560018361170f565b610595565b61059560028361170f565b6000838152600960209081526040808320838052909152902054909150846105be8360026116e2565b6105c89086611696565b815181106105d8576105d86116f9565b602090810291909101810191909152600083815260098252604080822082805290925220600101548461060c8360026116e2565b6106169086611696565b610621906001611696565b81518110610631576106316116f9565b602002602001018181525050505b8061064981611722565b915050610563565b5061065d60018561170f565b6106689060026116e2565b6106729082611696565b905060015b848111610701578087146106ef57600087821161069e5761069960018361170f565b6106a9565b6106a960028361170f565b6000838152600a602090815260408083208c8452909152902054909150846106d18386611696565b815181106106e1576106e16116f9565b602002602001018181525050505b806106f981611722565b915050610677565b5061070d60018561170f565b6107179082611696565b90508860006020020135828281518110610733576107336116f9565b6020908102919091010152886001602002013582610752836001611696565b81518110610762576107626116f9565b602090810291909101015260408901358261077e836002611696565b8151811061078e5761078e6116f9565b60209081029190910101526060890135826107aa836003611696565b815181106107ba576107ba6116f9565b602090810291909101015285826107d2836004611696565b815181106107e2576107e26116f9565b60209081029190910101526001600160a01b03831663b4d49986600261080b60808d018d61173b565b866040518563ffffffff1660e01b815260040161082b9493929190611789565b602060405180830381865afa158015610848573d6000803e3d6000fd5b505050506040513d601f19601f8201168201806040525081019061086c919061180a565b610889576040516309bde33960e01b815260040160405180910390fd5b60005b60028110156108db576040805180820182528b820135815260608c013560208083019182528d356000908152600b82528481208c8252909152929092209051815590516001918201550161088c565b506040513381526020808b0135918b35917f522251e32864451f1c4db7779f8041dad85a7486c3a7435db8775b8cde96aba5910160405180910390a3505050505050505050565b336000818152600860205260408120549081900361095e576040516311fd7c5560e31b81526001600160a01b03831660048201526024016102a9565b600260045460ff166003811115610977576109776115b8565b14610995576040516327154ce560e21b815260040160405180910390fd5b3360009081526008602052604090205460018054600254600354919290916001600160a01b0316906109c7908361170f565b6109d1888061182c565b9050146109f157604051631a95983360e11b815260040160405180910390fd5b6000848152600a6020908152604080832090915290205415610a2857604051637fcb3fdd60e01b81523360048201526024016102a9565b604051633757a45160e11b8152600160048201526000906001600160a01b03831690636eaf48a290602401602060405180830381865afa158015610a70573d6000803e3d6000fd5b505050506040513d601f19601f82011682018060405250810190610a9491906116a9565b60ff1667ffffffffffffffff811115610aaf57610aaf6116cc565b604051908082528060200260200182016040528015610ad8578160200160208202803683370190505b5090506000805b85811015610b7f57600087815260096020908152604080832084845290915290205483610b0d8360026116e2565b81518110610b1d57610b1d6116f9565b6020908102919091018101919091526000888152600982526040808220848352909252206001015483610b518360026116e2565b610b5c906001611696565b81518110610b6c57610b6c6116f9565b6020908102919091010152600101610adf565b50610b8b8560026116e2565b610b959082611696565b905060015b848111610c8857808714610c76576000878211610bc157610bbc60018361170f565b610bcc565b610bcc60028361170f565b600083815260096020908152604080832083805290915290205490915084610bf58360026116e2565b610bff9086611696565b81518110610c0f57610c0f6116f9565b6020908102919091018101919091526000838152600982526040808220828052909252206001015484610c438360026116e2565b610c4d9086611696565b610c58906001611696565b81518110610c6857610c686116f9565b602002602001018181525050505b80610c8081611722565b915050610b9a565b50610c9460018561170f565b610c9f9060026116e2565b610ca99082611696565b905060015b848111610d1e57808714610d0c576000878211610cd557610cd060018361170f565b610ce0565b610ce060028361170f565b90508184610cee8386611696565b81518110610cfe57610cfe6116f9565b602002602001018181525050505b80610d1681611722565b915050610cae565b50610d2a60018561170f565b610d349082611696565b905060005b610d4460018661170f565b811015610d9d57610d558a8061182c565b82818110610d6557610d656116f9565b90506020020135838380610d7890611722565b945081518110610d8a57610d8a6116f9565b6020908102919091010152600101610d39565b506001600160a01b03831663b4d499866001610dbc60208d018d61173b565b866040518563ffffffff1660e01b8152600401610ddc9493929190611789565b602060405180830381865afa158015610df9573d6000803e3d6000fd5b505050506040513d601f19601f82011682018060405250810190610e1d919061180a565b610e3a576040516309bde33960e01b815260040160405180910390fd5b60015b848111610f0457868103610e8c576000878152600a6020908152604080832084845290915290207f060c89ce5c263405370a08b6d0302b0bab3eedb83920ee0a677297dc392126f19055610ef2565b6000878211610ea557610ea060018361170f565b610eb0565b610eb060028361170f565b9050610ebc8b8061182c565b82818110610ecc57610ecc6116f9565b60008b8152600a6020908152604080832088845282529091209102929092013590915550505b80610efc81611722565b915050610e3d565b50610f0f60036111c4565b604051869033907f906faaf913a60f38b5e8f2d6f5b163239bac2d994fa1a5d21751a51587a9405790600090a3505050505050505050565b3360008181526008602052604081205490819003610f83576040516311fd7c5560e31b81526001600160a01b03831660048201526024016102a9565b6001548314610fa557604051631a95983360e11b815260040160405180910390fd5b600160045460ff166003811115610fbe57610fbe6115b8565b14610fdc5760405163d491a09d60e01b815260040160405180910390fd5b336000908152600860209081526040808320548084526009835281842084805290925282205490919015801561102c57506000828152600960209081526040808320838052909152902060010154155b90508061104e576040516364dbd98760e01b81523360048201526024016102a9565b60005b6001548110156110c05761109b878783818110611070576110706116f9565b9050604002016000013588888481811061108c5761108c6116f9565b90506040020160200135611249565b6110b8576040516361586bdd60e01b815260040160405180910390fd5b600101611051565b5060005b600154811015611136578686828181106110e0576110e06116f9565b905060400201600001358787838181106110fc576110fc6116f9565b60008781526009602090815260408083208884528252918290209290910293909301909201356001808401919091559290915550016110c4565b5060065460075461117f91908888600081611153576111536116f9565b9050604002016000013589896000818110611170576111706116f9565b905060400201602001356112f5565b60075560065561118f60026111c4565b604051829033907f5e1dd8c4451717d5ca4ffbefdada35e22e0871220b9ed9dd03a351f0938c5ed790600090a3505050505050565b600554806111d181611722565b915050600180015481036112435760006005556004805483919060ff19166001836003811115611203576112036115b8565b02179055507f1501476ad057e333abb9bb708545e6cd1af64d0650fb8f2900f67e2fa431c0b7826040516112379190611876565b60405180910390a15050565b60055550565b60008060008051602061189b8339815191528485099050600060008051602061189b8339815191528485099050600060008051602061189b8339815191528260008051602061189b83398151915285620292fc09089050600060008051602061189b833981519152808460008051602061189b83398151915287620292f8090960010890506112e7828260008051602061189b833981519152611443565b159450505050505b92915050565b60008085158015611304575084155b1561131357508290508161143a565b8315801561131f575084155b1561132e57508490508361143a565b600060008051602061189b8339815191528588099050600060008051602061189b8339815191528588099050600060008051602061189b83398151915280838509620292f8099050600060008051602061189b83398151915280898b0960008051602061189b833981519152898d0908905060006113cf8460008051602061189b83398151915287620292fc0960008051602061189b833981519152611443565b905060008051602061189b8339815191526113fb60008051602061189b8339815191528560010861147e565b8309965060008051602061189b83398151915261143061142b60018660008051602061189b833981519152611443565b61147e565b8209955050505050505b94509492505050565b60008383811161145a576114578382611696565b90505b828061146857611468611884565b6000611474868461170f565b0895945050505050565b60006112ef8261149d600260008051602061189b83398151915261170f565b60008051602061189b833981519152600060405160208152602080820152602060408201528460608201528360808201528260a082015260208160c08360055afa8080156100b457505051949350505050565b6000806040838503121561150357600080fd5b50508035926020909101359150565b60006020828403121561152457600080fd5b81356001600160a01b038116811461153b57600080fd5b9392505050565b60006020828403121561155457600080fd5b813567ffffffffffffffff81111561156b57600080fd5b820160a0818503121561153b57600080fd5b60006020828403121561158f57600080fd5b813567ffffffffffffffff8111156115a657600080fd5b82016040818503121561153b57600080fd5b634e487b7160e01b600052602160045260246000fd5b600481106115ec57634e487b7160e01b600052602160045260246000fd5b9052565b604081016115fe82856115ce565b8260208301529392505050565b6000806020838503121561161e57600080fd5b823567ffffffffffffffff8082111561163657600080fd5b818501915085601f83011261164a57600080fd5b81358181111561165957600080fd5b8660208260061b850101111561166e57600080fd5b60209290920196919550909350505050565b634e487b7160e01b600052601160045260246000fd5b808201808211156112ef576112ef611680565b6000602082840312156116bb57600080fd5b815160ff8116811461153b57600080fd5b634e487b7160e01b600052604160045260246000fd5b80820281158282048414176112ef576112ef611680565b634e487b7160e01b600052603260045260246000fd5b818103818111156112ef576112ef611680565b60006001820161173457611734611680565b5060010190565b6000808335601e1984360301811261175257600080fd5b83018035915067ffffffffffffffff82111561176d57600080fd5b60200191503681900382131561178257600080fd5b9250929050565b60ff85168152600060206060602084015284606084015284866080850137600060808685018101829052601f19601f880116850185810382016040870152865191810182905260208701929160a0909101905b808310156117fc57835182529284019260019290920191908401906117dc565b509998505050505050505050565b60006020828403121561181c57600080fd5b8151801515811461153b57600080fd5b6000808335601e1984360301811261184357600080fd5b83018035915067ffffffffffffffff82111561185e57600080fd5b6020019150600581901b360382131561178257600080fd5b602081016112ef82846115ce565b634e487b7160e01b600052601260045260246000fdfe30644e72e131a029b85045b68181585d2833e84879b9709143e1f593f0000001a264697066735822122083c8386ba5f17106fb9b535bc15d490ab67ac661e64b69b52aaf3a9fe6308f7b64736f6c63430008170033",
    "linkReferences": {}
  },
  "methodIdentifiers": {
    "Commitment(uint256,uint256)": "28ec6d3c",
    "CommitteeIndices(address)": "5747a74d",
    "Disclosure(uint256,uint256)": "3d77cf8b",
    "Encrypted(uint256,uint256)": "30ac716d",
    "PK_COMMITTEE()": "ee5cf153",
    "config()": "79502c55",
    "owner()": "8da5cb5b",
    "register(address)": "4420e486",
    "reveal((uint256[2],uint256[2],bytes))": "601e16e9",
    "round1((uint256,uint256)[])": "c5a04958",
    "round2((uint256[],bytes))": "b50fa3d3",
    "state()": "c19d93fb"
  },
  "id": 27
}